{
  "contractName": "MultiSigContract",
  "abi": [
    {
      "inputs": [
        {
          "internalType": "uint256",
          "name": "_numSignaturesRequired",
          "type": "uint256"
        },
        {
          "internalType": "address[]",
          "name": "_owners",
          "type": "address[]"
        }
      ],
      "stateMutability": "nonpayable",
      "type": "constructor"
    },
    {
      "inputs": [
        {
          "internalType": "uint256",
          "name": "",
          "type": "uint256"
        },
        {
          "internalType": "address",
          "name": "",
          "type": "address"
        }
      ],
      "name": "confirmations",
      "outputs": [
        {
          "internalType": "bool",
          "name": "",
          "type": "bool"
        }
      ],
      "stateMutability": "view",
      "type": "function",
      "constant": true
    },
    {
      "inputs": [
        {
          "internalType": "address",
          "name": "",
          "type": "address"
        }
      ],
      "name": "isOwner",
      "outputs": [
        {
          "internalType": "bool",
          "name": "",
          "type": "bool"
        }
      ],
      "stateMutability": "view",
      "type": "function",
      "constant": true
    },
    {
      "inputs": [],
      "name": "numSignaturesRequired",
      "outputs": [
        {
          "internalType": "uint256",
          "name": "",
          "type": "uint256"
        }
      ],
      "stateMutability": "view",
      "type": "function",
      "constant": true
    },
    {
      "inputs": [
        {
          "internalType": "uint256",
          "name": "",
          "type": "uint256"
        }
      ],
      "name": "owners",
      "outputs": [
        {
          "internalType": "address",
          "name": "",
          "type": "address"
        }
      ],
      "stateMutability": "view",
      "type": "function",
      "constant": true
    },
    {
      "inputs": [
        {
          "internalType": "address",
          "name": "",
          "type": "address"
        }
      ],
      "name": "rewards",
      "outputs": [
        {
          "internalType": "uint256",
          "name": "",
          "type": "uint256"
        }
      ],
      "stateMutability": "view",
      "type": "function",
      "constant": true
    },
    {
      "inputs": [
        {
          "internalType": "uint256",
          "name": "",
          "type": "uint256"
        }
      ],
      "name": "transactions",
      "outputs": [
        {
          "internalType": "address",
          "name": "destination",
          "type": "address"
        },
        {
          "internalType": "uint256",
          "name": "value",
          "type": "uint256"
        },
        {
          "internalType": "bool",
          "name": "executed",
          "type": "bool"
        }
      ],
      "stateMutability": "view",
      "type": "function",
      "constant": true
    },
    {
      "inputs": [
        {
          "internalType": "address",
          "name": "_destination",
          "type": "address"
        },
        {
          "internalType": "uint256",
          "name": "_value",
          "type": "uint256"
        }
      ],
      "name": "proposeTransaction",
      "outputs": [],
      "stateMutability": "nonpayable",
      "type": "function"
    },
    {
      "inputs": [
        {
          "internalType": "uint256",
          "name": "_txIndex",
          "type": "uint256"
        }
      ],
      "name": "confirmTransaction",
      "outputs": [],
      "stateMutability": "nonpayable",
      "type": "function"
    },
    {
      "inputs": [
        {
          "internalType": "uint256",
          "name": "_txIndex",
          "type": "uint256"
        }
      ],
      "name": "executeTransaction",
      "outputs": [],
      "stateMutability": "nonpayable",
      "type": "function"
    }
  ],
  "bytecode": "0x60806040523480156200001157600080fd5b50604051620012c5380380620012c58339818101604052810190620000379190620003dc565b81815110158015620000495750600082115b6200008b576040517f08c379a00000000000000000000000000000000000000000000000000000000081526004016200008290620004c9565b60405180910390fd5b8160008190555060005b8151811015620001aa57600160026000848481518110620000bb57620000ba620004eb565b5b602002602001015173ffffffffffffffffffffffffffffffffffffffff1673ffffffffffffffffffffffffffffffffffffffff16815260200190815260200160002060006101000a81548160ff02191690831515021790555060018282815181106200012c576200012b620004eb565b5b60200260200101519080600181540180825580915050600190039060005260206000200160009091909190916101000a81548173ffffffffffffffffffffffffffffffffffffffff021916908373ffffffffffffffffffffffffffffffffffffffff1602179055508080620001a19062000549565b91505062000095565b50505062000596565b6000604051905090565b600080fd5b600080fd5b6000819050919050565b620001dc81620001c7565b8114620001e857600080fd5b50565b600081519050620001fc81620001d1565b92915050565b600080fd5b6000601f19601f8301169050919050565b7f4e487b7100000000000000000000000000000000000000000000000000000000600052604160045260246000fd5b620002528262000207565b810181811067ffffffffffffffff8211171562000274576200027362000218565b5b80604052505050565b600062000289620001b3565b905062000297828262000247565b919050565b600067ffffffffffffffff821115620002ba57620002b962000218565b5b602082029050602081019050919050565b600080fd5b600073ffffffffffffffffffffffffffffffffffffffff82169050919050565b6000620002fd82620002d0565b9050919050565b6200030f81620002f0565b81146200031b57600080fd5b50565b6000815190506200032f8162000304565b92915050565b60006200034c62000346846200029c565b6200027d565b90508083825260208201905060208402830185811115620003725762000371620002cb565b5b835b818110156200039f57806200038a88826200031e565b84526020840193505060208101905062000374565b5050509392505050565b600082601f830112620003c157620003c062000202565b5b8151620003d384826020860162000335565b91505092915050565b60008060408385031215620003f657620003f5620001bd565b5b60006200040685828601620001eb565b925050602083015167ffffffffffffffff8111156200042a5762000429620001c2565b5b6200043885828601620003a9565b9150509250929050565b600082825260208201905092915050565b7f496e76616c6964206e756d626572206f66206f776e65727320616e642073696760008201527f6e6174757265732072657175697265642e000000000000000000000000000000602082015250565b6000620004b160318362000442565b9150620004be8262000453565b604082019050919050565b60006020820190508181036000830152620004e481620004a2565b9050919050565b7f4e487b7100000000000000000000000000000000000000000000000000000000600052603260045260246000fd5b7f4e487b7100000000000000000000000000000000000000000000000000000000600052601160045260246000fd5b60006200055682620001c7565b91507fffffffffffffffffffffffffffffffffffffffffffffffffffffffffffffffff82036200058b576200058a6200051a565b5b600182019050919050565b610d1f80620005a66000396000f3fe608060405234801561001057600080fd5b50600436106100935760003560e01c80639ace38c2116100665780639ace38c214610158578063bc0c5fd51461018a578063c01a8c84146101a8578063ee22610b146101c4578063f19a6682146101e057610093565b8063025e7c27146100985780630700037d146100c85780632f54bf6e146100f85780633411c81c14610128575b600080fd5b6100b260048036038101906100ad91906108e5565b6101fc565b6040516100bf9190610953565b60405180910390f35b6100e260048036038101906100dd919061099a565b61023b565b6040516100ef91906109d6565b60405180910390f35b610112600480360381019061010d919061099a565b610253565b60405161011f9190610a0c565b60405180910390f35b610142600480360381019061013d9190610a27565b610273565b60405161014f9190610a0c565b60405180910390f35b610172600480360381019061016d91906108e5565b6102a2565b60405161018193929190610a67565b60405180910390f35b610192610309565b60405161019f91906109d6565b60405180910390f35b6101c260048036038101906101bd91906108e5565b61030f565b005b6101de60048036038101906101d991906108e5565b61047a565b005b6101fa60048036038101906101f59190610a9e565b61064d565b005b6001818154811061020c57600080fd5b906000526020600020016000915054906101000a900473ffffffffffffffffffffffffffffffffffffffff1681565b60056020528060005260406000206000915090505481565b60026020528060005260406000206000915054906101000a900460ff1681565b60046020528160005260406000206020528060005260406000206000915091509054906101000a900460ff1681565b600381815481106102b257600080fd5b90600052602060002090600302016000915090508060000160009054906101000a900473ffffffffffffffffffffffffffffffffffffffff16908060010154908060020160009054906101000a900460ff16905083565b60005481565b600260003373ffffffffffffffffffffffffffffffffffffffff1673ffffffffffffffffffffffffffffffffffffffff16815260200190815260200160002060009054906101000a900460ff1661039b576040517f08c379a000000000000000000000000000000000000000000000000000000000815260040161039290610b61565b60405180910390fd5b600381815481106103af576103ae610b81565b5b906000526020600020906003020160020160009054906101000a900460ff161561040e576040517f08c379a000000000000000000000000000000000000000000000000000000000815260040161040590610bfc565b60405180910390fd5b60016004600083815260200190815260200160002060003373ffffffffffffffffffffffffffffffffffffffff1673ffffffffffffffffffffffffffffffffffffffff16815260200190815260200160002060006101000a81548160ff02191690831515021790555050565b600260003373ffffffffffffffffffffffffffffffffffffffff1673ffffffffffffffffffffffffffffffffffffffff16815260200190815260200160002060009054906101000a900460ff16610506576040517f08c379a00000000000000000000000000000000000000000000000000000000081526004016104fd90610b61565b60405180910390fd5b6003818154811061051a57610519610b81565b5b906000526020600020906003020160020160009054906101000a900460ff1615610579576040517f08c379a000000000000000000000000000000000000000000000000000000000815260040161057090610bfc565b60405180910390fd5b610582816107af565b1561064a5760006003828154811061059d5761059c610b81565b5b9060005260206000209060030201905060018160020160006101000a81548160ff0219169083151502179055508060010154600560008360000160009054906101000a900473ffffffffffffffffffffffffffffffffffffffff1673ffffffffffffffffffffffffffffffffffffffff1673ffffffffffffffffffffffffffffffffffffffff16815260200190815260200160002060008282546106419190610c4b565b92505081905550505b50565b600260003373ffffffffffffffffffffffffffffffffffffffff1673ffffffffffffffffffffffffffffffffffffffff16815260200190815260200160002060009054906101000a900460ff166106d9576040517f08c379a00000000000000000000000000000000000000000000000000000000081526004016106d090610b61565b60405180910390fd5b600360405180606001604052808473ffffffffffffffffffffffffffffffffffffffff16815260200183815260200160001515815250908060018154018082558091505060019003906000526020600020906003020160009091909190915060008201518160000160006101000a81548173ffffffffffffffffffffffffffffffffffffffff021916908373ffffffffffffffffffffffffffffffffffffffff1602179055506020820151816001015560408201518160020160006101000a81548160ff02191690831515021790555050505050565b6000806000905060005b60018054905081101561089e57600460008581526020019081526020016000206000600183815481106107ef576107ee610b81565b5b9060005260206000200160009054906101000a900473ffffffffffffffffffffffffffffffffffffffff1673ffffffffffffffffffffffffffffffffffffffff1673ffffffffffffffffffffffffffffffffffffffff16815260200190815260200160002060009054906101000a900460ff1615610877576001826108749190610c4b565b91505b600054820361088b576001925050506108a5565b808061089690610ca1565b9150506107b9565b5060009150505b919050565b600080fd5b6000819050919050565b6108c2816108af565b81146108cd57600080fd5b50565b6000813590506108df816108b9565b92915050565b6000602082840312156108fb576108fa6108aa565b5b6000610909848285016108d0565b91505092915050565b600073ffffffffffffffffffffffffffffffffffffffff82169050919050565b600061093d82610912565b9050919050565b61094d81610932565b82525050565b60006020820190506109686000830184610944565b92915050565b61097781610932565b811461098257600080fd5b50565b6000813590506109948161096e565b92915050565b6000602082840312156109b0576109af6108aa565b5b60006109be84828501610985565b91505092915050565b6109d0816108af565b82525050565b60006020820190506109eb60008301846109c7565b92915050565b60008115159050919050565b610a06816109f1565b82525050565b6000602082019050610a2160008301846109fd565b92915050565b60008060408385031215610a3e57610a3d6108aa565b5b6000610a4c858286016108d0565b9250506020610a5d85828601610985565b9150509250929050565b6000606082019050610a7c6000830186610944565b610a8960208301856109c7565b610a9660408301846109fd565b949350505050565b60008060408385031215610ab557610ab46108aa565b5b6000610ac385828601610985565b9250506020610ad4858286016108d0565b9150509250929050565b600082825260208201905092915050565b7f4f6e6c79206f776e6572732063616e206578656375746520746869732061637460008201527f696f6e0000000000000000000000000000000000000000000000000000000000602082015250565b6000610b4b602383610ade565b9150610b5682610aef565b604082019050919050565b60006020820190508181036000830152610b7a81610b3e565b9050919050565b7f4e487b7100000000000000000000000000000000000000000000000000000000600052603260045260246000fd5b7f5472616e73616374696f6e20616c72656164792065786563757465642e000000600082015250565b6000610be6601d83610ade565b9150610bf182610bb0565b602082019050919050565b60006020820190508181036000830152610c1581610bd9565b9050919050565b7f4e487b7100000000000000000000000000000000000000000000000000000000600052601160045260246000fd5b6000610c56826108af565b9150610c61836108af565b9250827fffffffffffffffffffffffffffffffffffffffffffffffffffffffffffffffff03821115610c9657610c95610c1c565b5b828201905092915050565b6000610cac826108af565b91507fffffffffffffffffffffffffffffffffffffffffffffffffffffffffffffffff8203610cde57610cdd610c1c565b5b60018201905091905056fea264697066735822122056d5ab772e26714dd33e76e3dee5486a977ad9b4c14b87e9d09bab44f0718c2c64736f6c634300080d0033",
  "immutableReferences": {},
  "source": "pragma solidity ^0.8.4;\n\n// Interface for ERC20 token contract\n\ncontract MultiSigContract {\n\tuint256 public numSignaturesRequired;\n\taddress[] public owners;\n\tmapping (address => bool) public isOwner;\n\n\t//IERC20 public token; // ERC20 token contract address\n\n\tstruct Transaction {\n\t\taddress destination;\n\t\tuint value;\n\t\tbool executed;\n\t}\n\tTransaction[] public transactions;\n\tmapping (uint => mapping (address => bool)) public confirmations;\n\n\t// The balance that each address is allowed to withdraw\n\tmapping (address => uint) public rewards;\n\n\tconstructor(uint256 _numSignaturesRequired, address[] memory _owners) {\n\t\trequire(_owners.length >= _numSignaturesRequired && _numSignaturesRequired > 0,\n\t\t\t\"Invalid number of owners and signatures required.\");\n\t\tnumSignaturesRequired = _numSignaturesRequired;\n\n\t\tfor (uint i = 0; i < _owners.length; i++) {\n\t\t\tisOwner[_owners[i]] = true;\n\t\t\towners.push(_owners[i]);\n\t\t}\n\t}\n\n\tfunction proposeTransaction(address _destination, uint _value) public onlyOwners {\n\t\ttransactions.push(Transaction({\n\t\t\tdestination: _destination,\n\t\t\tvalue: _value,\n\t\t\texecuted: false\n\t\t}));\n\t}\n\n\tfunction confirmTransaction(uint _txIndex) public onlyOwners {\n\t\trequire(!transactions[_txIndex].executed, \"Transaction already executed.\");\n\t\tconfirmations[_txIndex][msg.sender] = true;\n\t}\n\n\tfunction executeTransaction(uint _txIndex) public onlyOwners {\n\t\trequire(!transactions[_txIndex].executed, \"Transaction already executed.\");\n\t\tif (isConfirmed(_txIndex)) {\n\t\t\tTransaction storage tx = transactions[_txIndex];\n\t\t\ttx.executed = true;\n\t\t\trewards[tx.destination] += tx.value;\n\t\t}\n\t}\n\n\tfunction isConfirmed(uint _txIndex) internal view returns (bool) {\n\t\tuint count = 0;\n\t\tfor (uint i = 0; i < owners.length; i++) {\n\t\t\tif (confirmations[_txIndex][owners[i]]) {\n\t\t\t\tcount += 1;\n\t\t\t}\n\t\t\tif (count == numSignaturesRequired) {\n\t\t\t\treturn true;\n\t\t\t}\n\t\t}\n\t\treturn false;\n\t}\n\n\tmodifier onlyOwners() {\n\t\trequire(isOwner[msg.sender], \"Only owners can execute this action\");\n\t\t_;\n\t}\n}\n",
  "sourcePath": "/home/francisco/Desktop/proof-of-training/crypto/contracts/MultiSigContract.sol",
  "compiler": {
    "name": "solc",
    "version": "0.8.13+commit.abaa5c0e.Emscripten.clang"
  },
  "schemaVersion": "3.4.14",
  "updatedAt": "2023-06-18T23:56:58.283Z",
  "networkType": "ethereum",
  "devdoc": {
    "kind": "dev",
    "methods": {},
    "version": 1
  },
  "userdoc": {
    "kind": "user",
    "methods": {},
    "version": 1
  }
}